:020000040800F2
:1000000028080020810100085139000881360008C5
:1000100000000000000000000000000000000000E0
:100020000000000000000000000000008D3B000800
:10003000000000000000000055390008E13B000806
:100040009301000893010008930100089301000840
:100050009301000893010008930100081D15000892
:100060009301000893010008930100089301000820
:100070009301000893010008930100089301000810
:10008000930100089301000893010008000000009C
:1000900093010008930100089301000893010008F0
:1000A00093010008930100089301000893010008E0
:1000B00093010008930100089301000893010008D0
:1000C00000F002F800F04CF812A030C808382418EC
:1000D0002D18AC4201D100F043F80FCCA246AB463C
:1000E0000CA730CF2D1B083F3F197C427F1E544484
:1000F0002D090426F441641EAC4201D300F030F80F
:100100000126334200D0FB1A3343984754465D46DC
:10011000DFE70000F44A0000144B0000103A02D35D
:1001200078C878C1FAD8520701D330C830C101D598
:1001300004680C6070470000704700000023002432
:1001400000250026103A01D378C1FBD8520700D30E
:1001500030C100D50B6070471FB51FBD10B510BD75
:1001600001F004F81146FFF7F7FF04F0CDFA01F0B3
:100170001CF803B4FFF7F2FF03BC01F07BF80000AA
:100180000748804707480047FEE7FEE7FEE7FEE72F
:10019000FEE7FEE704480549054A064B70470000A4
:1001A000F53C0008C10000082802002028080020B3
:1001B00028040020280400204343514330B55C1834
:1001C000010C130C0D4692B25D4380B251432C19C1
:1001D000054655430A0C09044D1962415843010C68
:1001E00000044019514130BDFEB5044610460D468D
:1001F000184373D0A6468C460020A41A01469D41A0
:1002000067D36646002701243D46B61A9D4102D3B6
:1002100013463A462124654676462F04360C3E4363
:100220002D0CB61A9D4104D3150C1B042B4312044C
:100230001034654676462F06360A3E432D0AB61A16
:100240009D4104D3150E1B022B4312020834654650
:1002500076462F0736093E432D09B61A9D4104D331
:10026000150F1B012B431201241D65467646AF076F
:10027000B6083E43AD08B61A9D4104D3950F9B00C6
:100280002B439200A41C65467646EF0776083E4352
:100290006D08B61A9D411AD392185B41641C16E092
:1002A0000018764665464941B71A9D410191009074
:1002B00009D36046B11A98418E4684460098019948
:1002C0000025401C6941DD0752082A435B08641E73
:1002D000E6D57246634603B0F0BDFFE720462843EB
:1002E00007D00020C0430146C046C04622462B46E8
:1002F000F1E700200146F7E701E004C0091F0429E7
:10030000FBD28B0701D50280801CC90700D0027088
:10031000704700290BD0C30702D00270401C491E51
:10032000022904D3830702D50280801C891EE3E7DB
:100330000022EEE70022DFE7002203098B422CD3E4
:10034000030A8B4211D300239C464EE003460B4325
:100350003CD4002243088B4231D303098B421CD387
:10036000030A8B4201D394463FE0C3098B4201D379
:10037000CB01C01A524183098B4201D38B01C01AB1
:10038000524143098B4201D34B01C01A5241030928
:100390008B4201D30B01C01A5241C3088B4201D3D7
:1003A000CB00C01A524183088B4201D38B00C01A84
:1003B000524143088B4201D34B00C01A5241411AAB
:1003C00000D201465241104670475DE0CA0F00D08E
:1003D0004942031000D3404253409C460022030987
:1003E0008B422DD3030A8B4212D38901FC2212BA0D
:1003F000030A8B420CD3890192118B4208D38901E5
:1004000092118B4204D389013AD0921100E08909FC
:10041000C3098B4201D3CB01C01A524183098B42DD
:1004200001D38B01C01A524143098B4201D34B01C6
:10043000C01A524103098B4201D30B01C01A524129
:10044000C3088B4201D3CB00C01A524183088B42B0
:1004500001D38B00C01A5241D9D243088B4201D339
:100460004B00C01A5241411A00D201465241104677
:1004700063465B1001D34042002B00D549427047D0
:1004800063465B1000D3404201B50549002802DCF9
:10049000491C084000E00846C046C04602BD00BFF7
:1004A000FFFFFF7F70477047704700000246C80F8C
:1004B000C00781434B0030B54B405B009B0D20D003
:1004C0001923DB06C91801231B05994220DB0324ED
:1004D000A40704251346AB400BD3002B04D1EB0635
:1004E00013409B00E34204D4012464070023121943
:1004F0005941FF231B0599420BD2C9000143500FFC
:1005000009E0CB0204D501430803024305D00548A6
:1005100030BDFF21C905084330BD08460721090544
:10052000884330BD0000C07FF0B50C46871A9C415F
:100530000D46861A9D4103D2C01BA141D2196341C9
:100540000D0D1F0DC94EEC1BAE435CD07F057F0D1A
:100550000026002F51D02D05AC46A943DD02012312
:10056000ED0A1B051D4320231B1B24D41746E7401F
:10057000381871412F46E740CC199D402818314664
:1005800061410C0D27D161449A4013D50023401CD2
:10059000594152000ED14008400001224B00520543
:1005A000D34207D305204007C14201D5B04900E03E
:1005B000B0493046F0BD6B00002A00D001229A18E5
:1005C0001F23203C1B1B01D5002302E0E540281817
:1005D00071410C0DD7D0012424050919C407CD079A
:1005E00040084908E40F28436144002CD5D000247A
:1005F000401C61419A40D0D1CDE76A05520DD9D156
:10060000C90FC907D5E79C4D4E00002801D0012431
:1006100000E0002434195F00002A01D0012600E028
:100620000026BE19954FAC420CD8AE420AD8B4424F
:1006300006D001256D05EC42BCD010461946F0BD30
:100640009942FCD000203946F0BDF0B51FB40C46ED
:100650000F46811A9F412546861A9D4106D20125E3
:10066000ED076F40401ABC4152187B41210D1E0D11
:100670008D1BAC467D4D8D437ED075056D0D7CD0B8
:100680000D05AE46AC431B031B0B794D52429D41F9
:10069000202366469B1B14D31746F74038180026C4
:1006A0000090744160462F460741E41900989D4030
:1006B0002818664116D4714671189A4025D5012331
:1006C00020E093182A466A415200002B00D0521CA9
:1006D0001E23203E9B1B002B61DD3541EE172818A1
:1006E0006641E8D5001876415B1C9A4000D3401C57
:1006F0004B05F3181524E34010D3002B52D071465C
:100700007118D30FC01802D3491C05B0F0BD0123E6
:10071000DB079A42F9D140084000F6E70122520572
:10072000B21801D1002853D00123CC0ADB0299432F
:10073000891E002A08D1020C03D0020C00041039D3
:1007400002E00246002020390023550B05D1120299
:100750000823550B01D152010D23550C01D1120173
:100760001B1DD50C01D192009B1C150D01D152000F
:100770005B1C2025EE1A01E02CE022E00546F54046
:1007800015439840CA1AE10769181305C918002AC9
:10079000BBDA032040070818C10FC9070FE07146F4
:1007A0006118B2E7F10740080843711071444A002C
:1007B0000CD001235B059A42A7D2C90FC9070020BC
:1007C000A3E74905490D26D1002001E00028F4D116
:1007D00000219AE7284D6600002801D0012100E0A1
:1007E000002171185F00002A01D0012600E00026D8
:1007F000BE19224FA94210D8AE420ED8B14208D03D
:1008000001256D05E94206D01946A802414010466F
:100810007BE79C4201D0214677E70020394674E708
:1008200010B50C465C4005D50124E4076340FFF792
:100830000CFF10BDFFF778FE10BD30B40C465C40D5
:1008400004D50124E407634030BC6DE630BCFCE60F
:1008500070B50124E40761400D465D4002D4FFF706
:1008600063FE70BD6340FFF7F0FE70BDFF07000040
:100870000000F0FF0000F07F0000E0FF0000F87FC4
:10088000F0B5F94D0C091E092C402E402F468BB0B7
:10089000A7437DD0B543FCD0002E7AD0002CFCD0ED
:1008A0000D465D40ED0F2543AC1BFF25AD046419DB
:1008B0000894C502440DC9022143500DDC020443D3
:1008C0000120C00701430443D2020191200C110C06
:1008D00000958C46010423468B430A916146090426
:1008E000E24D8A430991010A7D444919803909780A
:1008F00005464D4301266D18F605751B6943C90C65
:10090000640B891C4C436418B5012C1B250C2E0468
:10091000B4434C434D43210C691889090591009D4E
:10092000E90701D00121C90704912C460199670804
:10093000CD072F434C08059DE10B4D432D0C294657
:100940006646754302950D4645432E46029D7D1B26
:10095000B44100950D465D4301942C0C2F040D46C7
:100960005543AE462D0C3D43029503947546049CB9
:100970002D04641B049406D2029C039D641C002673
:1009800075410395029401AC70CC009F7D1B01E082
:100990003EE162E1B4410904009507910194059993
:1009A000A4086143090C0C464443650BE7040C465C
:1009B00066467443A646640B3C4303950294744612
:1009C000049DE4042C1B049406D2029C039D641C29
:1009D000002675410395029401AC70CC009F7D1BED
:1009E000B44101940C465C430095650FE7000C464A
:1009F0005443A646640F3C43039502947446049DF9
:100A0000E4002C1B049406D2029C039D641C002667
:100A100075410395029401AC70CC009F7D1BB441DD
:100A2000AE09AF06049DC900AD092F43049DA4067D
:100A3000AD060495079D344369180791059DE10BA8
:100A40004D432D0C29466646754302950D46454398
:100A50002E46029D7D1BB44100950D465D430194D9
:100A60002C0C2F040D465543AE462D0C3D430295EC
:100A700003947546049C2D04641B049406D2029CC6
:100A8000039D641C002675410395029401AC70CC53
:100A9000009F7D1BB44101948C050694079C890A34
:100AA000611800950791019C0599A4086143090C00
:100AB0000D464543680BEF040D46644665436C0BD9
:100AC0003C43049FED047D1BAC4602D20025641C10
:100AD0006841009E019D371B85410846584301959A
:100AE0000C46460FC5005443600F28436546E4009A
:100AF0002C1B02D20025401C6E41019D3F1AB541BE
:100B00002846BD09800628438446A009BF064E0238
:100B10000699A40676180743079D002068410A99A4
:100B2000079019430020099B00906046FF1913436A
:100B30004041E20F64003A43A4460446D71A8C4170
:100B4000A04203D90120009020463A46C70F9418CE
:100B500040416246D20F2243644664000494009CE4
:100B6000BE466400D71AA446044602978C417746D5
:100B7000002F01D1A04204D96046401C8446029A4D
:100B80002046C40FA64694184041049A0546D20F49
:100B9000224364466400D31A8D417146002901D175
:100BA000A84202D928461A46641C10430122002894
:100BB00000D0164361020020079B891904465C415E
:100BC0000223002C02DB491813466441089DCE0A1B
:100BD0002D145D194B056705E10A2C050D190899BF
:100BE0003E43C9076940002B08D0934006D300223A
:100BF000761C5141002B01D1760876001C4A002D4D
:100C000043DB154241D0AA433FD030460BB0F0BD84
:100C100006180D464D41174C7642AC411AD3951833
:100C20001C465C41134A6D42A24113D30122520576
:100C30004C00D4420AD15C00D4420BD04B4002D5C8
:100C400092021143E2E749004908DFE75940C90F22
:100C5000C90718E000200849D8E7054801420DD12E
:100C60000342F7D0F2E700000000FF075042000007
:100C70000000F07F0000E0FF0000F87F11485940BD
:100C80000143C01241400020C0E70123089A9B069F
:100C90009A4205DC032252078918C90FC907B5E734
:100CA000052252078918074A1143D2125140ADE775
:100CB00070B515461C4602460B4628462146FFF7EE
:100CC000DFFD70BDFFFFFF7F1F22030C02D10F224B
:100CD000000402D0030E03D004E000200146704758
:100CE0000002083A030F01D10001121F830F01D146
:100CF0008000921E002801DB4000521E1205511890
:100D00004205C012411810467047C10FC90700D0F4
:100D10004042012292071143D6E701218907D3E718
:100D2000F0B58B4C0F09254689B0BD437BD01D091A
:100D30002646AE43FAD00E465E402740F60F3E43AD
:100D4000254071D024012142FBD0FF24AD19A40419
:100D50002D1B039501252D05DB02DB0AC9022B4360
:100D6000C90A29431E010901040F130F050121437C
:100D70001701880B820391432D098C46A90B1E4352
:100D80008A039543B30B9A0396433F09BA0B940326
:100D9000A74302962E467E430497B6464E19D719AE
:100DA0000C460196544305977E43371B7646BF1B7E
:100DB0003601B646BE0B361900967646BC04371986
:100DC000009C01D3641C00946400002F01D0012614
:100DD0003443029E049F754366467E430496760024
:100DE00034196E0034190094029C019E1C1966434C
:100DF000751BAE46069465464519059C05956C43E2
:100E0000594375460891691A0191049E0146514360
:100E1000A41B0491611A009C0791E10605D06109A9
:100E20000122114302E072E06EE06109089D002793
:100E30002C0A2D066918049D7C412A0A2D06691882
:100E4000019D6241AC0DAD026D185441079A910DA0
:100E5000920255196141029A644658435443069BD5
:100E6000059A5A43121A131B9A0E9B015B187A417A
:100E7000010B0005C3185141220A200644195A41AA
:100E80009A4200D2491C01204002814203D315231B
:100E90000226F64302E014230326F6432020C51A57
:100EA000A9401746AF40DA400A4320460399D8408C
:100EB0000914731819055118039A3843D207514081
:100EC000AC4009D00122944006D30022401C51417D
:100ED000002C01D1400840001E4A934212D3012247
:100EE00003989206904207DB0520400709181A482C
:100EF0000143C012414004E0032040070818C10F1D
:100F0000C907002009B0F0BD0020F107FAE7051875
:100F10000C464C4111486D42A04115D394181A4615
:100F20005A410E48644290410ED301204A004005C8
:100F3000824209D35A00824206D35940C90F084A57
:100F4000C90700201143DDE700200649DAE7000069
:100F50000000FF07FE070000FFFFFF7F0000E0FF2B
:100F60000000F07F0000F87F0121C905012341182E
:100F700042001B06D3185B0E0AD0C1100722D2060E
:100F8000891840075242D14201D552008918704752
:100F9000090208D50146002A03D0C10FC907002065
:100FA000704710467047420202D000200249704745
:100FB000072109050143F4E70000F87F10B5014659
:100FC0009E240002CA15A307002A02D01843002A53
:100FD00004DBA21A002A0CDDD04010BD1206120E4E
:100FE00001D140004008A21A03D4D040404200285A
:100FF000F3DDFF2248001206904201D9002010BD07
:10100000C817C043584010BD1F22030C02D10F2245
:1010100000041CD0030E01D10002083A030F01D1D5
:101020000001121F830F01D18000921E002801DBF6
:101030004000521ED2055118021251181922904038
:1010400004D3491C002801D14908490008467047CB
:10105000C10FC90700D04042012292071143D3E7D4
:1010600001218907D0E70000F8B5264C4E00069D07
:10107000A6420AD8A64201D1002806D15E00A642A7
:1010800003D8A6420AD1002A08D00D242404254200
:1010900033D02946002000F090F8F8BD0C461C43E0
:1010A00011D4994207D0C81A02D3EFF30080F8BDDB
:1010B000EFF30080F8BD801A02D3EFF30080F8BD93
:1010C000EFF30080F8BD09242407E5008B4207D028
:1010D000581A02D3EFF3008006E0EFF3008007E038
:1010E000101A03D3EFF30080A04303E0EFF3008076
:1010F000A043284380F30088F8BD009500F074F801
:10110000F8BD00000000E0FF10B5FF231B064400FF
:101110009C421DD84C009C421AD80346124A0B43ED
:1011200007D4401A02D3EFF3008010BDEFF3008024
:1011300010BD081A03D3EFF30080904305E0EFF3EE
:10114000008001219043C907084380F3008810BD47
:101150000D231B041A4204D01146002000F02DF884
:1011600010BD00F04BF810BD00000090754600F077
:101170004DF8AE46050069465346C008C000854696
:1011800018B020B5FFF706F860BCB6460026002769
:10119000C0C5C0C5C0C5C0C5C0C5C0C5C0C5C0C527
:1011A000403D490849008D46704710B50446C04689
:1011B000C0462046FEF7DDFF10BDC80212D5480329
:1011C000400F002804D0C803C04301218840704765
:1011D000EFF300800001000903210907084380F3B1
:1011E000008870470020704710B500200249029A1D
:1011F00000F010F810BD00000000F87F10B50248A4
:1012000000F008F810BD00000000C07F00487047E3
:101210001800002010B50C461107090F092904D049
:101220000A290AD008290CD104E011460820FFF74A
:10123000C4FF06E0510606D501E0510601D50120A4
:10124000C007214610BDD10607D501010909CC0808
:101250004907000E0006044309E0410F2002490738
:10126000000A0143200E00061D22D1410143084619
:10127000E7E7000001491820ABBEFEE726000200A8
:101280007047000080B584B003900398019009482E
:1012900000680949FFF750F8019948430290FFE7B9
:1012A0000298002804D0FFE70298401E0290F7E75A
:1012B00004B080BD0400002040420F0080B584B01F
:1012C0000290002001900299096889680322114068
:1012D0000129009005D1FFE702980068006800909E
:1012E000FFE70098C007002845D1FFE70298006893
:1012F0008068254908420DD0FFE70299486D102209
:1013000010434865029A916D01200143916503A93C
:10131000087034E0029802689168012001439160EE
:10132000FFF7B0FF00F032FE0190FFE7029800687F
:101330000068C00700281DD1FFE700F027FE0199D3
:10134000401A0B2815D3FFE7029800680068C00711
:1013500000280DD1FFE70299486D1022104348651F
:10136000029A916D01200143916503A9087006E07E
:10137000FFE7DBE7FFE703A900200870FFE703A80A
:10138000007804B080BDC0461700008080B582B0F0
:1013900001204103304800F0C9FD002804D1FFE7D7
:1013A0000A490020087003E0084901200870FFE79F
:1013B0002948009001210191002202F0CDFA009805
:1013C000019A202102F0C8FA02B080BD0800002076
:1013D00080B586B0059004910598FFF7C5FD029091
:1013E00003910498FFF7C0FD184A194BFFF718FA4C
:1013F000024602980B46039903F0E8F9002806D14B
:10140000FFE701229103144800F0A9FD1CE00598B4
:10141000FFF7AAFD009001910498FFF7A5FD0B4A84
:101420000C4BFFF7FDF9024600980B46019903F0BB
:10143000D8F9002807D1FFE70120810306480022E0
:1014400000F08DFDFFE7FFE706B080BD9A999999FE
:101450009999B9BF9999B93F00040050B0B596B0B9
:1014600015908020149028490AA81CC91CC01CC9CA
:101470001CC03CC93CC01598FFF7A0FD0990159809
:1014800001900998FFF7E4FD0146019803F0EEFA98
:101490001E4903F093FAFFF791FD08900998049014
:1014A000089805900020C043069004A908460C3017
:1014B000103102910390FFE703980299002204C0C3
:1014C00088420390F8D1FFE711480068062809D147
:1014D000FFE7049881000AA840580F4908430D49C6
:1014E00008600FE00A48006801280AD1FFE7059864
:1014F00081000AA840587F21490208430549086035
:10150000FFE7FFE716B0B0BDBC4B0008000020416C
:10151000200200201408005080FD000080B501204A
:10152000400300F063FB80BD81B0EFF3108072B622
:101530000090FFE7FEE7000080B584B002900191C3
:10154000FFE702985021405C012804D1FFE703A97E
:101550000220087093E00299502201208854FFE78E
:10156000FFE702980068806804210840800800288E
:101570000FD0FFE70299486D202210434865FFE72E
:101580000299502200208854FFE703A90120087027
:1015900075E0019840683C49884234D0FFE70198E3
:1015A00002683B48024002980168886A10438862DA
:1015B00001988078400700280AD5FFE7E6490868C7
:1015C0000122D205104308600A20FFF75BFEFFE707
:1015D000019880788007002807D5FFE7DE49086872
:1015E0000122920510430860FFE701988078C00748
:1015F000002807D0FFE7D8490868012212061043E7
:101600000860FFE731E001980068C2431F480243C9
:1016100002980168886A10408862019880784007C3
:10162000002807D5FFE7CC4908680122D20590437E
:101630000860FFE7019880788007002807D5FFE75A
:10164000C54908680122920590430860FFE70198A8
:101650008078C007002807D0FFE7BF49086801224B
:10166000120690430860FFE7FFE7FFE70299502268
:1016700000208854FFE703A900200870FFE703A8B3
:10168000007804B080BDC046011000000000F8FFE3
:10169000FFFF070081B000900098406D01B07047D7
:1016A00081B0009000980068006C01B070470000A5
:1016B00080B584B002900298002804D1FFE703A906
:1016C0000120087043E10298406D00280AD1FFE72D
:1016D000029900208865029950228854029800F0EF
:1016E0003FF9FFE70298406D10210840102809D00B
:1016F000FFE70298006880680421084080080028FD
:101700000FD0FFE70299486D102210434865FFE7AC
:101710000299502200208854FFE703A90120087095
:1017200015E10298406D0221084301210902884316
:1017300002994865029800688168032001400020F2
:101740000129019005D1FFE7029800680068019027
:10175000FFE70198C007002845D1FFE7FFE702989F
:1017600040680321890788420ED0FFE7029840684D
:1017700001218907884207D0FFE7029840680121CC
:10178000C90788420ED1FFE7029801680869032261
:101790009207904308610298426801680869104303
:1017A000086112E0029801680869032292079043D9
:1017B0000861694908680F22920490430860029802
:1017C0004268086810430860FFE7FFE70298016875
:1017D000C86818229043C860029882680168C86887
:1017E0001043C860FFE75C49086801225206904335
:1017F00008600298406B420608681043086002982F
:1018000000688068C000002808D4FFE702980168DB
:1018100088680122120710438860FFE70298016878
:10182000C8684E4A1040C86002980090C2680169BA
:10183000891E4B42594189000A432021415C4903DA
:101840000A432C21415C49000A43016B0A43816928
:1018500089030A43C169C9030A430168C868104380
:10186000C8600298406AFF21C231884209D0FFE770
:101870000298426A816A0A430168C8681043C860D6
:10188000FFE702982121405C01281AD1FFE7029866
:101890002021405C002808D1FFE702980168C86851
:1018A000012212041043C8600AE00299486D202208
:1018B000104348650299886D012210438865FFE74F
:1018C000FFE70298C06B012818D1FFE70298016872
:1018D0000869FF229200904308610298026C416CF3
:1018E0000A43816C0A430168086910430861029841
:1018F000016808690122104308610EE0029800683F
:101900000069C007002807D0FFE70298016808694E
:10191000012290430861FFE7FFE7029801684869E8
:101920000722904348610298826B0168486910431E
:1019300048610299002088650299496D012211438E
:1019400002229143029A516503A90870FFE703A898
:10195000007804B080BDC046082701401902FEFF90
:1019600080B588B007900020069005900490039001
:10197000029007980068114988421DD1FFE710497D
:1019800008680122520210430860FFE70D48026810
:1019900001210A4302600068084001900198FFE7B6
:1019A00001200290032003900020049005200007EE
:1019B00002A900F031F9FFE708B080BD0024014022
:1019C000341002402C10024080B586B00490039180
:1019D00000200290019004984069082803D1FFE795
:1019E0000820019019E004980068C068C00700282A
:1019F0000FD0FFE70499486D202210434865FFE7A8
:101A00000499502200208854FFE705A9012008709E
:101A100086E00C200190FFE7FFE700F0B7FA0290A4
:101A2000FFE7049800680068019908422AD1FFE79F
:101A30000398401C002824D0FFE70398002808D012
:101A4000FFE700F0A3FA0299401A0399884217D9D8
:101A5000FFE7049800680068019908420FD1FFE78A
:101A60000499486D042210434865FFE70499502209
:101A700000208854FFE705A90320087050E0FFE725
:101A8000FFE7CEE70499486D0122520210434865F2
:101A900004980068C0680005800F002832D1FFE775
:101AA00004982021405C00282CD1FFE704980068AE
:101AB00000680007002824D5FFE7049800688068C4
:101AC00004210840800800280FD1FFE7049801682E
:101AD00048680C22904348600498406D01210843F7
:101AE00009028843049948650AE00499486D202258
:101AF000104348650499886D012210438865FFE70B
:101B0000FFE7FFE704988069002805D1FFE7049804
:101B100001680C200860FFE705A900200870FFE7B6
:101B200005A8007806B080BD80B584B0029001A9F8
:101B3000002008700298006880680421084080082E
:101B400000283FD1FFE7FFE702985021405C0128C1
:101B500004D1FFE703A9022008703BE0029950225C
:101B600001208854FFE7FFE70298C069012806D0EA
:101B7000FFE70298FFF7A2FB01A90870FFE701A8A1
:101B8000007800281DD1FFE70298406D012109026D
:101B90000843124908400299486502990020886567
:101BA000FFE70299502200208854FFE7029801685D
:101BB0001C2008600298016888680422104388602D
:101BC000FFE703E001A902200870FFE7019803A9DD
:101BD0000870FFE703A8007804B080BDFEF1FFFFA6
:101BE00081B06946088001B07047000080B582B0BE
:101BF00001A90880074800680988084208D0FFE763
:101C000001A80188034A11600088FFF7E9FFFFE798
:101C100002B080BD140401408CB00B900A910020EA
:101C2000099008900790FFE70A9800680999C84052
:101C3000002800D162E10A980068099A01219140C8
:101C4000084008900898002800D153E10A9840689D
:101C500003210840012807D0FFE70A9840680321C4
:101C6000084002282CD1FFE70B988068079009985C
:101C70004000032181400798884307900A98C16873
:101C800009984000814007980843079007980B99EE
:101C900088600B9840680790099801218140079857
:101CA000884307900A984068102108400109099864
:101CB000814007980843079007980B994860FFE711
:101CC0000A98406803210840032816D0FFE70B98C4
:101CD000C068079009984000032181400798884315
:101CE00007900A9881680998400081400798084346
:101CF000079007980B99C860FFE70A98406803218E
:101D00000840022820D1FFE70B980999C9088900EB
:101D10004018006A079009984007C00E0F218140C3
:101D20000798884307900A98016909984007C00EF0
:101D3000814007980843079007980B99099AD208A1
:101D4000920089180862FFE70B98006807900998CD
:101D50004100032002468A400799914307910A995E
:101D6000496801400998400081400798084307905E
:101D700007980B9908600A9880798007002800D19D
:101D8000B7E05F4908680122104308600998032101
:101D900088435C494058079009988007000F0F213D
:101DA00081400798884307900B98052109078842CE
:101DB00003D1FFE70020069038E00B985249884293
:101DC00003D1FFE7012005902DE00B984F49884291
:101DD00003D1FFE70220049022E00B984C4988428F
:101DE00003D1FFE70320039017E00B98494988428D
:101DF00003D1FFE7042002900CE00B99464A05202E
:101E0000062300939142019001D00098019001981F
:101E10000290FFE702980390FFE703980490FFE722
:101E200004980590FFE705980690FFE70699099842
:101E30008007000F81400798084307900798099989
:101E4000032291432F4A885034480068079008992C
:101E50000798884307900A988079C006002805D51E
:101E6000FFE70899079808430790FFE707982B4971
:101E700008602B48006807900899079888430790E6
:101E80000A9880798006002805D5FFE70899079809
:101E900008430790FFE70798214908602148006838
:101EA000079008990798884307900A9880798007D7
:101EB000002805D5FFE70899079808430790FFE732
:101EC000079818490860184800680790089907980B
:101ED000884307900A988079C007002805D0FFE75B
:101EE0000899079808430790FFE707980E4908608C
:101EF000FFE7FFE70998401C099095E60CB0704792
:101F00003410024008000140000400500008005056
:101F1000000C005000100050001C0050080401404C
:101F20000C040140040401400004014084B000910D
:101F300001460098039102A9088003980069098866
:101F4000084204D0FFE701A90120087003E001A9BD
:101F500000200870FFE701A8007804B0704783B044
:101F6000029001A80180684602700078002805D020
:101F7000FFE701A800880299886104E001A80088B1
:101F800002998862FFE703B070470000B24800681A
:101F90007047C04610B583B001900091019841216F
:101FA000405C202839D1FFE7FFE701984021405CE1
:101FB000012804D1FFE702A90220087031E001994D
:101FC000402201208854FFE7FFE7019941222420A5
:101FD00088540198016808680123984308600198B3
:101FE000016808681C03A0430860009C0198016810
:101FF0000868204308600198016808681843086071
:10200000019920208854FFE701994022002088543C
:10201000FFE702A90020087003E002A9022008706F
:10202000FFE702A8007803B010BD84B002900191D0
:1020300002984121405C20283FD1FFE7FFE702984A
:102040004021405C012804D1FFE703A90220087069
:1020500037E00299402201208854FFE7FFE7029908
:10206000412224208854029801680868012398437B
:102070000860029800680068009000980F2109022B
:10208000884300900198010200980843009000984E
:102090000299096808600298016808681843086096
:1020A000029920208854FFE702994022002088549A
:1020B000FFE703A90020087003E003A902200870CD
:1020C000FFE703A8007804B07047000080B582B035
:1020D00000900098002804D1FFE701A901200870B2
:1020E00074E000984121405C002808D1FFE7009986
:1020F000402200208854009800F06EF8FFE7009915
:1021000041222420885400980168086801229043E5
:102110000860009948680F231B0698430968086106
:10212000009801688868D203904388600098C0686E
:10213000012808D1FFE7009988680122D2031043E3
:102140000968886007E0009988682122920210439C
:1021500009688860FFE70098C068022806D1FFE799
:10216000009801680120C0024860FFE700980168FC
:102170004868184A1043486000980168C8680122FE
:10218000D3039843C860009908694B6918438B6969
:102190001B0218430968C8600099C8690B6A184394
:1021A0000968086000980168086810430860009991
:1021B00000204864009A41232021D15400990863EB
:1021C00000994222885401A90870FFE701A800780D
:1021D00002B080BD0080000280B588B0079000206A
:1021E00006900590049003900290079800681349A8
:1021F000884220D1FFE7FFE71148026802210A4325
:1022000002600068084001900198FFE70320810206
:10221000029112210391002104910590062006905D
:10222000084802A9FFF7F8FC3D4908680122920519
:1022300010430860FFE708B080BDC046005800406A
:102240002C100240000400502C4802780249086813
:10225000801808607047C0462402002080B582B014
:1022600001A9002008700A4A11684023194311602F
:1022700000F010F8002804D0FFE701A90120087041
:1022800002E000F03FF8FFE701A8007802B080BD4F
:102290000020024080B584B0029017480068019089
:1022A000164801787D20C000FEF746F801460198E7
:1022B000FEF742F801F050F9002804D0FFE703A927
:1022C0000120087014E00298032809D8FFE702995A
:1022D0000022D04300F031F802980949086003E079
:1022E00003A90120087003E003A900200870FFE79C
:1022F00003A8007804B080BD040000201000002076
:102300001400002005490868012210430860E749CD
:1023100008681207104308607047C0463410024036
:102320003810024080B582B0014601A8017000213A
:10233000405602F091F902B080BD80B584B00346EA
:1023400003A803700291019200214056029902F005
:1023500099F904B080BD000080B586B0049001A951
:10236000002008700498006820210840202806D02A
:10237000FFE7049840780007002800D41FE1049884
:1023800000788006002801D5FFE7FFE70498407831
:102390000007002801D5FFE7FFE7C4480068C00038
:1023A000002809D4FFE7C14A116801200307194337
:1023B000116001A90870FFE7BD480068C00500284A
:1023C0001DD4FFE7BA4908680122120210430860D1
:1023D000FFF7DCFD0390FFE7B5480068C005002863
:1023E0000CD4FFE7FFF7D2FD0399401A652804D308
:1023F000FFE705A90320087053E1EDE7FFE7AD48CB
:10240000006803210A051040029002980499496867
:102410001140884209D1FFE7029804998968032294
:1024200012051140884214D0FFE704984068032148
:102430000904084088420BD1FFE79E4800688003EA
:10244000002804D5FFE705A90120087029E1FFE76E
:10245000FFE79948006803210904084002900298A8
:10246000002851D0FFE7029804994968032212041A
:102470001140884207D0FFE70498006820210840F7
:1024800020280FD0FFE702980499896803221204DC
:102490001140884238D0FFE70498407800070028B0
:1024A00032D5FFE784490868032212049043029062
:1024B00008680122D204104308600868904308604D
:1024C0000298086002A84078C00700281BD0FFE7E8
:1024D000FFF75CFD0390FFE77748006801214902A0
:1024E0000840400A00280DD1FFE7FFF74FFD039990
:1024F000401A7349884204D3FFE705A903200870F6
:10250000CFE0E9E7FFE7FFE70498407800070028FD
:1025100021D5FFE7FFE7FFE704988068032109045E
:10252000084088420BD1FFE762490868032213057F
:102530009843049A92681A4080180860FFE7FFE702
:10254000049882680320000402405B490868104335
:102550000860FFE7FFE7049800788006002821D58F
:10256000FFE7FFE7FFE704984068032109040840FC
:1025700088420BD1FFE74F490868032213059843AF
:10258000049A52681A4080180860FFE7FFE7049831
:10259000426803200004024047490868104308606D
:1025A000FFE7FFE701A80078012807D1FFE73F49CF
:1025B00008680122120790430860FFE7FFE70498CC
:1025C0000078C007002809D0FFE73C4908680322CB
:1025D0009043049AD26810430860FFE7049800789B
:1025E0008007002809D5FFE7344908680C2290438A
:1025F000049A126910430860FFE7049800784007C6
:1026000000280AD5FFE72D4908680322920290436B
:10261000049A526910430860FFE7049800780007A5
:1026200000280AD5FFE725490868032212039043D2
:10263000049A926910430860FFE704984078C00745
:1026400000280AD0FFE71D490868032212049043BE
:10265000049AD26910430860FFE7049800784006A6
:1026600000280AD5FFE71549086801229206904321
:10267000049A526A10430860FFE704980078000645
:1026800000280AD5FFE70D49086803229204904309
:10269000049A126A10430860FFE705A90020087039
:1026A000FFE705A8007806B080BDC046381002409C
:1026B0000070004000100240501002404C100240D8
:1026C0008913000080B586B0049003910498002817
:1026D00004D1FFE705A90120087062E10398B3491E
:1026E000096801221140884221D9FFE7AF490868F3
:1026F00001229043039A10430860FFF747FC0290C1
:10270000FFE7AA48006801210840039988420DD0DC
:10271000FFE7FFF73BFC0299401AA549884204D322
:10272000FFE705A9032008703BE1EAE7FFE704980B
:1027300000788007002809D5FFE7B1490868F02232
:102740009043049A926810430860FFE70498007869
:10275000C007002800D1BCE00498406802280ED1D0
:10276000FFE7F3480068012149040840400C0028B5
:1027700004D1FFE705A90120087012E134E00498B4
:10278000406803280ED1FFE7E948006801214906A7
:102790000840400E002804D1FFE705A90120087079
:1027A000FFE020E00498406801280DD1FFE7E048F1
:1027B0000068042108408008002804D1FFE705A92B
:1027C00001200870EDE00DE0D948006801214902C0
:1027D0000840400A002804D1FFE705A9012008703D
:1027E000DFE0FFE7FFE7FFE7CF49086803229043F8
:1027F000049A526810430860FFF7C8FB02900498DF
:102800004068022816D1FFE7FFE7C74800680C219F
:10281000084008280DD0FFE7FFF7B8FB0299401ADF
:102820006349884204D3FFE705A903200870B8E094
:10283000EBE74DE004984068032816D1FFE7FFE777
:10284000B94800680C2108400C280DD0FFE7FFF7BD
:102850009DFB0299401A5649884204D3FFE705A917
:10286000032008709DE0EBE731E004984068012800
:1028700016D1FFE7FFE7AC4800680C2108400428A8
:102880000DD0FFE7FFF782FB0299401A48498842C2
:1028900004D3FFE705A90320087082E0EBE715E009
:1028A000FFE7A14800680007800F00280DD0FFE770
:1028B000FFF76CFB0299401A3D49884204D3FFE7B9
:1028C00005A9032008706CE0EBE7FFE7FFE7FFE7EF
:1028D000FFE703983549096801221140884221D257
:1028E000FFE73249086801229043039A10430860C9
:1028F000FFF74CFB0290FFE72C48006801210840DD
:10290000039988420DD0FFE7FFF740FB0299401A78
:102910002749884204D3FFE705A90320087040E057
:10292000EAE7FFE704980078400700280AD5FFE7A8
:102930007D490868072212029043049AD268104326
:102940000860FFE704980078000700280BD5FFE730
:10295000754908680722D2029043049A1269D2008E
:1029600010430860FFE700F04FF86F490968C9B2EB
:102970000A091049895CC840124908600E4800687D
:10298000FFF788FC014601A801700078002804D0F8
:10299000FFE7019805A9087003E005A90020087069
:1029A000FFE705A8007806B080BDC04600200240C1
:1029B00089130000E44B000814000020014800685F
:1029C0007047C0460400002080B5FFF7F7FF564966
:1029D00009680722120211400A0A0A49895CC840A4
:1029E00080BDC04680B5FFF7E9FF4F49096807225F
:1029F000D2021140CA0A0349895CC84080BDC04662
:102A00000C100240F44B000880B58AB046480068BC
:102A1000099009980C21084003900C2875D8039858
:102A2000810001A040588746092B00080B2B0008A5
:102A30000B2B00080B2B00085D2A00080B2B00084D
:102A40000B2B00080B2B0008772A00080B2B000823
:102A50000B2B00080B2B00087D2A00083448006867
:102A6000C006002803D5FFE73348049002E0314850
:102A70000490FFE755E03148049052E009980F2197
:102A800089040840810C2948405C0890099803217A
:102A900089050840800D401C079023480068C0034A
:102AA00000280DD5FFE70898244A00230293194611
:102AB000FDF782FB029B079AFDF796FB069020E04C
:102AC0001B480068C00600280DD5FFE708981A4A81
:102AD000002301931946FDF76FFB019B079AFDF751
:102AE00083FB06900CE00898124A002300931946D5
:102AF000FDF762FB009B079AFDF776FB0690FFE768
:102B0000FFE7069804900CE0FFE70D48006880B2EC
:102B1000400B05900598411C01208840C00304909B
:102B2000FFE704980AB080BD0C100240FC4B00087F
:102B3000001002400024F40000093D0000127A0059
:102B40000410024010B58AB008900898002805D1FA
:102B5000FFE709A90120087000F015FCFD48016895
:102B60000C221140049100680121090408400390DF
:102B700008980078C007002800D18DE00498082844
:102B80000AD0FFE704980C2819D1FFE70398012128
:102B90000904884213D1FFE7EF4800680121490486
:102BA0000840400C002809D0FFE70898406800283A
:102BB00004D1FFE709A901200870E4E36BE0FFE717
:102BC0000898406801210904884207D1FFE7E249DB
:102BD0000868012212041043086021E00898406848
:102BE0000521090488420BD1FFE7DB49086801226F
:102BF00093041843086008681204104308600EE04C
:102C0000D5490868012213049843086008681840F1
:102C1000029002980868920490430860FFE7FFE77B
:102C2000FFE70898406800281AD0FFE7FFF7AEF9E1
:102C30000790FFE7C8480068012149040840400C9C
:102C400000280CD1FFE7FFF7A1F90799401A652882
:102C500004D3FFE709A90320087094E3EAE719E029
:102C6000FFF794F90790FFE7BB480068012149048A
:102C70000840400C00280CD0FFE7FFF787F90799C0
:102C8000401A652804D3FFE709A9032008707AE3F6
:102C9000EAE7FFE7FFE7FFE70898007880070028EA
:102CA00000D4A8E00898C068069006A800788006BE
:102CB000002809D5FFE7A84A1068202108431060C2
:102CC000069888430690FFE70498042808D0FFE799
:102CD00004980C2841D1FFE7039800283DD1FFE775
:102CE0009D480068042108408008002808D0FFE7BC
:102CF0000698002804D1FFE709A90120087042E3E3
:102D0000964908681F2212029043089A126912021B
:102D1000104308609049086809229043069A1043BE
:102D20000860FFE7FFF770FE8A490968C9B20A091F
:102D30008B49895CC8408B4908608B480068FFF765
:102D4000A9FA014605A801700078002804D0FFE721
:102D5000059809A9087016E34CE0069800282AD0C7
:102D6000FFE77D49086809229043069A10430860EE
:102D7000FFF70CF90790FFE7774800680421084047
:102D8000800800280CD1FFE7FFF700F90799401AE7
:102D9000032804D3FFE709A903200870F3E2EBE757
:102DA0006E4908681F2212029043089A12691202A3
:102DB000104308601DE068490868012290430860DC
:102DC000FFF7E4F80790FFE7634800680421084034
:102DD000800800280CD0FFE7FFF7D8F80799401AC1
:102DE000032804D3FFE709A903200870CBE2EBE72F
:102DF000FFE7FFE7FFE708980078C006002800D447
:102E0000A1E00498002845D1FFE75348006801215C
:102E100049020840400A002809D0FFE70898C06925
:102E2000002804D1FFE709A901200870ABE24B4953
:102E30000868072252039043089A526A10430860B8
:102E40000868FF2212069043089A126A1206801838
:102E500008600898406A400B411C01208840C0036C
:102E60003C490968C9B20A093D49895CC8403D49E5
:102E700008603D480068FFF70DFA014605A801709B
:102E80000078002804D0FFE7059809A908707AE2C5
:102E9000FFE757E00898C069002832D0FFE72E49C5
:102EA00008680122120210430860FFF76FF80790CC
:102EB000FFE729480068012149020840400A00282C
:102EC0000CD1FFE7FFF762F80799401A032804D3F3
:102ED000FFE709A90320087055E2EAE71F490868DF
:102EE000072252039043089A526A10430860086808
:102EF000FF2212069043089A126A12068018086090
:102F00001FE0154908680122120290430860FFF78C
:102F10003DF80790FFE7104800680121490208408A
:102F2000400A00280CD0FFE7FFF730F80799401A55
:102F3000032804D3FFE709A90320087023E2EAE786
:102F4000FFE7FFE7FFE708980078000700284FD564
:102F50000CE0C0460C100240001002400410024079
:102F6000E44B000804000020140000200898406989
:102F700000281ED0FFE7FD490868012210430860C1
:102F8000FFF704F80790FFE7F848006802210840BF
:102F9000400800280CD1FFE7FEF7F8FF0799401A18
:102FA000032804D3FFE709A903200870EBE1EBE74E
:102FB0001DE0F9490868012290430860FEF7E6FF2A
:102FC0000790FFE7F4480068022108404008002805
:102FD0000CD0FFE7FEF7DAFF0799401A032804D365
:102FE000FFE709A903200870CDE1EBE7FFE7FFE762
:102FF000089800784007002800D4BBE001A9002011
:103000000870E6480068C000002809D4FFE7E34ADA
:103010001168012003071943116001A90870FFE737
:10302000DF480068C00500281DD4FFE7DC490868B8
:103030000122120210430860FEF7A8FF0790FFE785
:10304000D7480068C00500280CD4FFE7FEF79EFFB4
:103050000799401A652804D3FFE709A903200870DF
:1030600091E1EDE7FFE7FFE7089880680121090299
:10307000884207D1FFE7C8490868012212021043BD
:1030800008602EE00898806800280BD1FFE7C2494D
:10309000086801221302984308600868920290436E
:1030A00008601DE0089880680521090288420BD15C
:1030B000FFE7B949086801229302184308600868CD
:1030C0001202104308600AE0B349086801221302A3
:1030D000984308600868920290430860FFE7FFE7A2
:1030E000FFE7FFE70898806800281BD0FFE7FEF79E
:1030F0004DFF0790FFE7A8480068012149020840FA
:10310000400A00280DD1FFE7FEF740FF0799401A5B
:10311000A449884204D3FFE709A90320087032E1DB
:10312000E9E71AE0FEF732FF0790FFE79A480068E8
:10313000012149020840400A00280DD0FFE7FEF7B0
:1031400025FF0799401A9749884204D3FFE709A948
:103150000320087017E1E9E7FFE701A800780128DC
:1031600007D1FFE78D4908680122120790430860E4
:10317000FFE7FFE7089800788006002854D5FFE7AE
:1031800008988069002829D0FFE7FFE7864908688A
:10319000012210430860EF49086810430860834922
:1031A0000868520310430860FFE7FEF7EFFE079040
:1031B000FFE77D48006802210840400800280CD144
:1031C000FFE7FEF7E3FE0799401A032804D3FFE761
:1031D00009A903200870D6E0EBE724E0FFE7724975
:1031E00008680122904308607049086852039043C0
:1031F0000860FFE7FEF7CAFE0790FFE76A4800682D
:1032000002210840400800280CD0FFE7FEF7BEFE70
:103210000799401A032804D3FFE709A9032008707F
:10322000B1E0EBE7FFE7FFE70898806A002800D1EC
:10323000A5E004980C2872D0FFE70898806A02285D
:103240004CD1FFE7534908680122120690430860F9
:10325000FEF79CFE0790FFE74E48006801214906F3
:103260000840400E00280CD0FFE7FEF78FFE0799BC
:10327000401A032804D3FFE709A90320087082E05D
:10328000EAE743490868FD2212049043089BDA6A82
:103290001C6B22435B6B1A43104308603D4908686E
:1032A0000122120610430860FEF770FE0790FFE748
:1032B00038480068012149060840400E00280CD11A
:1032C000FFE7FEF763FE0799401A032804D3FFE7E0
:1032D00009A90320087056E0EAE71FE02D490868B5
:1032E0000122120690430860FEF750FE0790FFE7A8
:1032F00028480068012149060840400E00280CD0EB
:10330000FFE7FEF743FE0799401A032804D3FFE7BF
:1033100009A90320087036E0EAE7FFE72EE00898E5
:10332000806A012804D1FFE709A9012008702AE07A
:103330001748006803900398012109040840089980
:10334000C96A884214D1FFE703980F218904084015
:103350000899096B88420BD1FFE70398032189057F
:1033600008400899496B884206D001E0501002409D
:1033700009A90120087006E0FFE7FFE7FFE709A9B8
:1033800000200870FFE709A800780AB010BDC04609
:103390000C10024000100240501002403810024051
:1033A0000070004089130000081002402000014016
:1033B00070B584B002900298002804D1FFE703A9F9
:1033C0000120087072E00298406A00280DD1FFE7E2
:1033D0000298406841218900884201D1FFE703E05B
:1033E00002990020C861FFE705E00299002008610A
:1033F00002994861FFE702990020886202985121F2
:10340000405C002808D1FFE7029950220020885430
:10341000029800F04FF8FFE7029851230226C654A5
:10342000029801680868402290430860029A01925D
:10343000506841218900084091682124A40221405C
:103440004018D5680121CC02254040191569354046
:10345000401955690D40401995694E023540401993
:10346000D569382635404019156A802635402843ED
:10347000956A4E033540284312681060029A90699D
:10348000000C04252840556A102635404019126862
:10349000506002980268D069A043D061029A00206F
:1034A0005065029AD15403A90870FFE703A8007879
:1034B00004B070BD10B58CB00B9000200A9009903C
:1034C0000890079006900B980068214988423CD1EB
:1034D000FFE7204908680122120310430860FFE754
:1034E000D748026801210A4302600068084005903D
:1034F0000598FFE7FFE7D248026802210A4302600D
:103500000068084004900498FFE7C020069002205D
:1035100000900790002002900890032101910991EA
:103520000A900520000706A90391FEF775FB009B92
:10353000019A029803990824069407930890099227
:103540000A90C248FEF768FBFFE70CB010BDC0460A
:10355000003001403410024080B582B001900198E3
:1035600000F016FB02B080BD80B582B000900098DC
:10357000002804D1FFE701A90120087048E0009865
:103580008069002801D0FFE700E0FFE70098C06FE6
:10359000002808D1FFE7009978220020885400987D
:1035A00000F03AF8FFE700992420C8670098016806
:1035B0000868012290430860009800F04FFD012840
:1035C00004D1FFE701A90120087021E00098406ABA
:1035D000002804D0FFE7009800F08DFBFFE700987B
:1035E000016848680922D202904348600098016847
:1035F00088682A2290438860009801680868012240
:1036000010430860009800F023FC01A90870FFE750
:1036100001A8007802B080BD80B588B00790002076
:103620000690059004900390029007980068C7499F
:10363000884221D1FFE71149086801225204104352
:103640000860FFE77E48026801210A4302600068C3
:10365000084001900198FFE70C200290022003909F
:103660000020049003200590042006900520000708
:1036700002A9FEF7D1FAFFE708B080BD381002407A
:10368000FFE7FEE780B584B000210091039102912D
:1036900019480190194A0260C163031D0322920771
:1036A00042608160816301220261C16019775977AC
:1036B0008162FF23C23343622C23C154042343613C
:1036C000016381614263C161FDF7F2FF002803D00D
:1036D000FFE7FDF729FFFFE70120029000030390B9
:1036E000054802A9FDF728FF002803D0FFE7FDF7F2
:1036F0001BFFFFE704B080BD9000002000240140C4
:1037000070B590B000200F900E900D900C900B9023
:10371000FFE74B48026804210A4302600068084042
:103720000A900A98FFE7FFE74548026880210A43AC
:1037300002600068084009900998FFE7FFE74048E9
:10374000026801210A430260006808400890089856
:10375000FFE7FFE73A48026802210A430260006877
:10376000084007900798FFE736480090364E002241
:1037700005923146FEF7F3FB059A052000070290FB
:1037800020252946FEF7EBFB059A30480390304C84
:103790002146FEF7E4FB00980599012201925203AD
:1037A0000B92212212040C920D910BA90491FEF7A9
:1037B00033FA0098019B0499059A0B960C930D928D
:1037C0000E92FEF729FA019B02980499059A0B952F
:1037D0000C930D920E92FEF71FFA019A039804992A
:1037E000059B1C4D0B950C930D92FEF715FA019B52
:1037F00003980499059A0B940C930D920E92FEF780
:103800000BFA019B02980499059ADB030B930C9227
:103810000D92FEF701FA03980499059A0323DB0140
:103820000B930C920D92FEF7F7F9059A072006907C
:103830001146FEF782FD0698FEF774FD10B070BDCC
:103840002C10024000080050FF0F00000004005040
:1038500050C200002120000080B582B016480190BF
:1038600016490160E121C900416000218160012207
:10387000C260016141618161C1610162FEF726FCA4
:10388000002803D0FFE7FDF74FFEFFE70A480021BD
:10389000FEF780FB002803D0FFE7FDF745FEFFE7BA
:1038A00005480021FEF7C1FB002803D0FFE7FDF724
:1038B0003BFEFFE702B080BDEC0000200058004056
:1038C00080B582B00F4800900F4901604121890006
:1038D0004160002101918160C1600161416101226B
:1038E00052028261C1610162416281620721C1624B
:1038F000FFF75EFD002803D0FFE7FDF715FEFFE7A9
:1039000002B080BD400100200030014080B582B08F
:103910000D4801900D490160E121490241600021FB
:103920008160C16001610C2242618161C1610162FB
:103930004162FFF719FE002803D0FFE7FDF7F4FD11
:10394000FFE702B080BDC04698010020004400405F
:10395000FFE7FEE77047000080B590B00A9101468E
:103960000A980F910EA908800DA802700F98098877
:10397000FEF7DCFA002846D1FFE70DA801784C4895
:10398000405C00280DD1FFE7FEF700FB01460DA8C3
:1039900002789300474AD150027845490120885463
:1039A00030E0FEF7F3FA0DA909788A0041498958F9
:1039B000401A0C900C984449884222D3FFE70DA886
:1039C000079001784148424A08920029099001D0A5
:1039D0000898099009980590394806900068FDF705
:1039E000C3FA059B0022FCF71BFFFCF75FFD06995D
:1039F0000860FEF7CBFA079909788A002D498850AC
:103A0000FFE7FFE736E00DA801782948405C002871
:103A10002FD0FFE7FEF7BAFA0DA909788A002549E9
:103A20008958401A0B900B98AF21890088421AD808
:103A3000FFE70DA801782048204A0392002904904E
:103A400001D003980490049801901D4802900068EA
:103A5000FDF78AFA019B1B4AFCF7E2FEFCF726FD04
:103A600002990860FFE70DA80278114900208854E8
:103A7000FFE7FFE712480068002100F0BFFE0028C2
:103A800004D1FFE70E4900200860FFE70C480068FA
:103A9000FDF76AFA00220F4B00F0A3FE002805D1C3
:103AA000FFE70749412000060860FFE710B080BD2E
:103AB000780000207C0000209999B93F9999B9BFFE
:103AC0000C0000209A999999BD0200000000F03F77
:103AD0000000F0BF0000204080B584B0224800788C
:103AE00001280ED1FFE72148FEF71EF8002803D079
:103AF000FFE7FDF719FD03E01B4900200870FFE711
:103B0000FFE71A4800900A21FDF75EFF0098FDF7D5
:103B1000C1FD8005002824D5FFE71448FDF7C0FD4E
:103B200002900298FDF7F9F8114A124BFDF7F8F8E8
:103B30000022114BFCF7A4FEFCF7B8FC01900198A1
:103B4000FDF712FA0D4A0E4BFDF7EAF80D4A0E4B3F
:103B5000FCF766FEFCF7AAFC0390034901200870FD
:103B6000FFE7039804B080BD000000209000002013
:103B70006666666666660A400000B040499D80261B
:103B8000C2061F40014D840D4FAFF4BF70470000C7
:103B900080B584B002900298401E000E002803D029
:103BA000FFE70120039011E00298401E09490860D8
:103BB00000200190C043032100F064FD01980649F4
:103BC0000860064A072111600390FFE7039804B0DC
:103BD00080BDC04614E000E018E000E010E000E026
:103BE00080B5FEF731FB16480168491C016000688A
:103BF0000A2804D1FFE7124900200860FFE71148B6
:103C00000168491C016000687D21C900884204D117
:103C1000FFE70C4900200860FFE70A4801680A48EE
:103C200048430A4940180221C8410949884205D839
:103C3000FFE7FFF751FF07490860FFE780BDC04677
:103C40002002002084000020295C8FC250B81E058D
:103C5000285C8F0288000020B0B5A0B012A80290A6
:103C60003821FCF767FB00200190119010900F9015
:103C70000E900D9003A82821FCF75CFB0199029897
:103C80001B4C23680322D20293430122D5025B1905
:103C900023601023129319921A91052252031B924A
:103CA0001C91FEF74FFF002803D0FFE7FDF73CFC17
:103CB000FFE70F200D9000210E910F9110911191AF
:103CC0000DA8FEF7FFFC002803D0FFE7FDF72CFC52
:103CD000FFE7022003900020079003A8FEF73CFBBB
:103CE000002803D0FFE7FDF71FFCFFE720B0B0BDC1
:103CF00000700040704781B0009000982421405C23
:103D0000C00700280CD0FFE7009800684068012138
:103D10004904884300998A6A104309684860FFE7AC
:103D200000982421405C800700280CD5FFE700980C
:103D3000006840680121090488430099CA6A104359
:103D400009684860FFE700982421405C400700288C
:103D50000CD5FFE70098006840680121890488437A
:103D600000990A6B104309684860FFE70098242116
:103D7000405C000700280CD5FFE700980068406809
:103D80000121C903884300994A6B104309684860C0
:103D9000FFE700982421405CC00600280CD5FFE70F
:103DA00000980068806801210903884300998A6BA4
:103DB000104309688860FFE700982421405C800672
:103DC00000280CD5FFE700980068806801214903AE
:103DD00088430099CA6B104309688860FFE7009820
:103DE0002421405C400600281DD5FFE700980068AC
:103DF0004068012109058843009A136C1843126832
:103E000050600098006C88420CD1FFE70098006871
:103E1000406803214905884300994A6C10430968AA
:103E20004860FFE7FFE700982421405C0006002877
:103E30000CD5FFE70098006840680121C904884359
:103E400000998A6C104309684860FFE701B0704729
:103E500080B590B005900599842200208850FEF727
:103E600095F804900598006800680007002831D58F
:103E7000FFE70598049B4C49009101214905002268
:103E800000F06EFB002824D0FFE7FFE7EFF310807F
:103E900009900998039001200F900F9880F31088E3
:103EA00005980168086880229043086003980E9086
:103EB0000E9880F31088FFE705992020C867FFE778
:103EC0000599782200208854FFE706A9032008708E
:103ED00065E0FFE70598006800684007002849D5BD
:103EE000FFE70598049B30490091012189050022D4
:103EF00000F036FB00283CD0FFE7FFE7EFF310802F
:103F000008900898029001200D900D9880F3108879
:103F100005980168086809225201904308600298D8
:103F20000C900C9880F31088FFE7FFE7EFF3108008
:103F300007900798019001220B920B9880F310884C
:103F40000598016888689043886001980A900A98EB
:103F500080F31088FFE70599802220208850FFE732
:103F60000599782200208854FFE706A903200870ED
:103F700015E0FFE705992020C86705998022885041
:103F800005990020086605994866FFE7059978229B
:103F900000208854FFE706A900200870FFE706A864
:103FA000007810B080BDC046FFFFFF018DB00390C8
:103FB000FFE7EFF3108006900698029001200C9026
:103FC0000C9880F310880398016808680922520150
:103FD0009043086002980B900B9880F31088FFE7DD
:103FE000FFE7EFF3108005900598019001220A92F7
:103FF0000A9880F310880398016888689043886065
:1040000001980990099880F31088FFE70398006EE3
:10401000012818D1FFE7FFE7EFF310800490049820
:10402000009001200890089880F310880398016898
:10403000086810229043086000980790079880F362
:104040001088FFE7FFE7039980222020885003991A
:1040500000200866039988660DB0704710B58EB0D1
:104060000D9008A9002008700D980068D549884275
:1040700001D1FFE700E0FFE70D9988680A69104366
:104080004A691043C96908430C900D98006800689C
:10409000F74908400C9908430D99096808600D9884
:1040A000006840680321090388430D99CA681043DA
:1040B000096848600D9880690C900D980068C149A6
:1040C000884206D0FFE70D98016A0C9808430C90CF
:1040D000FFE70D98006880680B21090288430C995E
:1040E00008430D9909688860FFE70D980068EE495C
:1040F00088422AD1FFE7ED48006803210840069076
:1041000003281DD80698810001A040588746C04664
:1041100021410008314100082941000839410008C7
:104120000AA9012008700FE00AA9022008700BE01C
:104130000AA90420087007E00AA90820087003E013
:104140000AA910200870FFE793E00D980068FD4968
:1041500088423CD1FFE7D54800680C210840059013
:104160000C282FD80598810001A040588746C046EA
:10417000A5410008C5410008C5410008C541000827
:10418000B5410008C5410008C5410008C541000807
:10419000AD410008C5410008C5410008C5410008FF
:1041A000BD4100080AA9002008700FE00AA90220FA
:1041B00008700BE00AA90420087007E00AA908208B
:1041C000087003E00AA910200870FFE750E00D987E
:1041D0000068DD49884204D1FFE70AA90020087081
:1041E00045E00D980068D949884204D1FFE70AA943
:1041F000002008703AE00D980068D149884230D11B
:10420000FFE7D34800680321890208400490002892
:1042100012D0FFE7049801218902884214D0FFE7F9
:1042200004980121C90288420AD0FFE704980321BB
:10423000890288420CD00FE00AA9002008700FE024
:104240000AA9022008700BE00AA90420087007E000
:104250000AA90820087003E00AA910200870FFE7E7
:1042600003E00AA910200870FFE7FFE7FFE7FFE778
:10427000FFE7FFE70D980068B149884276D1FFE774
:104280000AA800780390082831D80398810001A07B
:1042900040588746B9420008EF420008C142000872
:1042A000EF420008DF420008EF420008EF4200083A
:1042B000EF420008E7420008FEF786FB07901CE08B
:1042C000A4480068102108400009002803D0FFE737
:1042D000A248079002E0A0480790FFE70DE0FEF734
:1042E00093FB079009E00120C003079005E0002040
:1042F000079008A901200870FFE70798002834D02C
:10430000FFE707980D994A6803215143884207D374
:10431000FFE707980D9949680903884204D9FFE728
:1043200008A9012008701FE00798010E00020D9AED
:1043300052685408002300195941FBF755FF0990B2
:104340000998000A03280AD3FFE70998000D0028FE
:1043500005D1FFE709980D990968C86003E008A92D
:1043600001200870FFE7FFE7FFE7E0E00D98C06974
:104370000121C903884271D1FFE70AA800780290A1
:10438000082838D80298810001A040588746C046C6
:10439000B5430008BD430008C9430008F7430008BF
:1043A000E7430008F7430008F7430008F743000815
:1043B000EF430008FEF708FB079022E0FEF712FB30
:1043C00007901EE000480040624800681021084045
:1043D0000009002803D0FFE76048079002E05E482C
:1043E0000790FFE70DE0FEF70FFB079009E00120C3
:1043F000C003079005E00020079008A9012008707D
:10440000FFE70798002828D0FFE7079840000D999C
:1044100049684A088018FBF78FFF0990099810280F
:1044200016D3FFE709A84088002811D1FFE70999B2
:104430000F2081430BA8018009990E2211404A08E0
:104440000B991143018000880D990968C86003E049
:1044500008A901200870FFE7FFE767E00AA80078D5
:10446000019008283BD80198810002A04058874657
:10447000F369FFEF99440008A1440008B144000823
:10448000DF440008CF440008DF440008DF44000890
:10449000DF440008D7440008FEF796FA079024E0AE
:1044A000FEF7A0FA079020E0003801404C100240CF
:1044B00028480068102108400009002803D0FFE7C1
:1044C0002648079002E024480790FFE70DE0FEF73A
:1044D0009BFA079009E00120C003079005E0002047
:1044E000079008A901200870FFE7079800281CD052
:1044F000FFE707980D9949684A088018FBF71CFFE9
:104500000990099810280BD3FFE709A840880028D4
:1045100006D1FFE709A800880D990968C86003E083
:1045200008A901200870FFE7FFE7FFE7FFE70D9903
:10453000002088660D99C86608A800780EB010BDE6
:104540000048004000440040004C00400050004043
:104550004C100240001002400024F40000093D000D
:1045600010B586B0089C0490039102A802700193D4
:10457000FFE704980068C06903990840401A414267
:10458000484102A9097888425ED1FFE70898401C9B
:10459000002858D0FFE7FDF7F9FC0199401A089967
:1045A000884204D8FFE70898002804D1FFE705A94E
:1045B000032008704CE00498006800684007002859
:1045C00040D5FFE704980068C06908210840C0088A
:1045D000012816D1FFE704980168082000900862BE
:1045E0000498FFF7E3FC0098049984228850FFE7C1
:1045F0000499782200208854FFE705A9012008705B
:1046000026E004980068C0690121C9020840C00A78
:10461000012816D1FFE7049801680120C002086252
:104620000498FFF7C3FC0499842220208850FFE7F8
:104630000499782200208854FFE705A90320087018
:1046400006E0FFE7FFE794E705A900200870FFE711
:1046500005A8007806B010BD81B00146684601701B
:1046600000214056002809D4FFE7684601781F2042
:1046700001400120884002490860FFE701B070470F
:1046800000E100E070B582B0024601A8027000911E
:1046900000214056002816D4FFE7002401A908573E
:1046A0000322D3431840174A805809578C07E50E58
:1046B000FF24AC40A043009CA401E4B2AC402043E2
:1046C000194088501AE001A908780F2420400838C2
:1046D0000322D34318400A4A8058002549578D07C2
:1046E000EE0EFF25B540A843009DAD01EDB2B540EB
:1046F00028432140083919408850FFE702B070BDB7
:104700001CED00E000E400E080B582B000200090E5
:104710000190FDF7A3FDFFF79FFAFEF7F1FFFEF70B
:10472000B1FFFFF799F8FFF7CBF8FFF7EFF8009A22
:104730001C484021FDF713FCFFE7FCF727FE1A4851
:104740000078002828D1FFE7184801681848484336
:10475000184940180221C8411749884206D8FFE786
:1047600016490878424250410870FFE71348007824
:10477000002805D0FFE713480068FCF76FFE04E04F
:10478000FF20C0430E490860FFE70E480E49096844
:104790000068FCF71DFE04E00B480068FCF75EFEB5
:1047A000FFE7CAE700040050080000208400002052
:1047B00063C92F9618E8B4010C74DA008C0000204D
:1047C00014080050880000200C00002010B500F0F4
:1047D00021F8EFF30080800001D5012010BD0020FA
:1047E00010BD10B500F048F8EFF300804000800FD6
:1047F000012801D0012010BD002010BD10B500F02F
:10480000B3F8EFF30080800001D5012010BD002037
:1048100010BD000070B501252D050C001C4310D4FF
:10482000EC4206D4AC420AD4994200D070BD90420A
:1048300070BDE94217D4EB4215D4994270BD89424C
:1048400070BDEC4206D5AC42F9D58B4200D070BDAC
:10485000824270BD6D004C00EC4204D25C00EC4220
:1048600001D28B4270BD034C30B4FCF7FDFB30BC71
:1048700070BD00BF1900130470B501252D050C0093
:104880001C4310D4EC4206D4AC420AD4994200D066
:1048900070BD904270BDE94217D4EB4215D49942E5
:1048A00070BD894270BDEC4206D5AC42F9D58B4251
:1048B00000D070BD824270BD6D004C00EC4204D24D
:1048C0005C00EC4201D28B4270BD034C30B4FCF76B
:1048D000CBFB30BC70BD00BF1900160470B50125BC
:1048E000ED0704004C4020D4441A01D2001B0919E2
:1048F000C60D4B00F2B2FF2A29D01B0E2CD00002AD
:104900000C0228432C43D31ADC40051910D2280A84
:1049100002D3401C6D0611D0761EF6058019FF2AC1
:1049200000DA70BDC00DC00570BD694000F0A4F88C
:1049300001200543C541521C761CE8E764089C40F1
:10494000C90161408900E7D10124A043E4E71B0EBF
:10495000440200D0034870BD002AFCD1C00FC0073C
:1049600070BD00BF0000C07F0123DB0502000A43C9
:104970000DD4DA4203D49A4207D488427047D84211
:1049800014D4D94212D48842704780427047DA4228
:1049900003D59A42F9D5814270475B004200DA4262
:1049A00004D24A00DA4201D28142704710B5024A6D
:1049B000FCF7AAFB10BD00BF0900130470B542004C
:1049C00064414B005C41120E39D01B0E38D0FF2AD7
:1049D0003CD0FF2B3AD0D2187F3A40024902400A1D
:1049E000490A4518ED0106004E43000A090A4843EA
:1049F0000104731A4019190C4318990F04D05B086D
:104A0000012149075B1A521CD80904D3401CF50345
:104A100001D19D0607D0FF2A08D2D50506D0E407AC
:104A20002043401970BD0125A843F4E7002A01DCAA
:104A3000E00770BD2402FF202043C00570BD1B0E9F
:104A4000FF2A03D0FF2B01D0E00770BDFF263606FA
:104A50004500B54206D84D00B54203D8D218FF2A0A
:104A600000D0E7E7004870BD0000C07F70B50125A9
:104A7000ED0704004C4022D4441A02D26C40001BC3
:104A80000919C60D4B00F2B2FF2A4BD01B0E50D0B5
:104A900000020C02A8432C43D31ADC40051B05D5A9
:104AA000AD0019D36D08761E521E37D0F605280AC0
:104AB00001D2801970BD70416D0603D070BD694090
:104AC000FFF712FF9C4009026140490001D0401EDF
:104AD00070BD0124A04370BD6D081DD001202B0CBA
:104AE00001D12D0410302B0E01D12D0208302B0FD7
:104AF00001D12D01001DAB0F01D1AD00801CEB0FCA
:104B000001D16D00401C361A121A6D00680AF505B5
:104B10004019012A02DB70BD002070BDC036300A8A
:104B2000C00770BD1B0E440201D1FF2B00D102480B
:104B300070BD002AF0D070BD0000C07F80807F7EF5
:104B40007D7C7B7A79787776767574737271717003
:104B50006F6E6E6D6C6C6B6A6A69686867666665B5
:104B60006464636362616160605F5F5E5E5D5D5C43
:104B70005C5B5B5A5A5959585857575656555555B4
:104B80005454535352525251515050504F4F4F4E14
:104B90004E4D4D4D4C4C4C4B4B4B4A4A4A49494962
:104BA00048484847474747464646454545444444A4
:104BB0004443434343424242424141417E0000005C
:104BC00018000000570000005B00000039000000E2
:104BD0006B0000006F000000580000007F00000024
:104BE0007B00000000000000000000000102030440
:104BF0000607080900000000010203040304060878
:104C00000C10182030000000284C00080000002084
:104C1000180000001C010008404C0008180000208B
:104C2000100800003C010008010000000000200006
:104C3000010000000000A04001000000040000008E
:04000005080000C12E
:00000001FF
